:020000040800F2
:10000000D00D00209D010008A5010008A7010008EF
:10001000A9010008AB010008AD01000800000000C4
:10002000000000000000000000000000AF01000818
:10003000B101000800000000B301000861250008BC
:10004000B7010008B7010008B7010008B7010008B0
:10005000B7010008B7010008B7010008B7010008A0
:10006000B7010008B7010008B7010008B701000890
:10007000B7010008B7010008B7010008B701000880
:10008000B7010008B7010008B7010008B701000870
:10009000B7010008B7010008B7010008B701000860
:1000A000B7010008B7010008B7010008B701000850
:1000B0005D260008B7010008B7010008B701000875
:1000C000B7010008B7010008B7010008B701000830
:1000D000B7010008B7010008B7010008B701000820
:1000E000B7010008B7010008B7010008B701000810
:1000F000B7010008B7010008B7010008B701000800
:10010000B7010008B7010008B7010008B7010008EF
:10011000B7010008B7010008B7010008B7010008DF
:1001200095030008B7010008B7010008B7010008EF
:10013000B7010008B7010008B7010008B7010008BF
:10014000B7010008B7010008B7010008B7010008AF
:10015000B7010008B7010008B7010008B70100089F
:10016000B7010008B7010008B7010008B70100088F
:10017000B7010008B7010008B7010008000000003F
:10018000B7010008B7010008DFF80CD000F018F83C
:1001900000480047152A0008D00D00200648804777
:1001A00006480047FEE7FEE7FEE7FEE7FEE7FEE75C
:1001B000FEE7FEE7FEE7FEE70526000889010008E6
:1001C000064C074D06E0E06840F0010394E80700A4
:1001D00098471034AC42F6D3FFF7DAFF042B00083F
:1001E000242B000810B5806B90F83D10252905D010
:1001F000152180F83D1000F079FA10BD352180F806
:100200003D10F8E710B5806B042180F83D10016CBB
:1002100041F00201016400F06BFA10BD10B5806B73
:1002200000F065FA10BD00004C490A6822F4403223
:100230000A600A6843681A430A6001684A6822F43F
:1002400080724A6001684A68036942EA03224A6090
:1002500001684A6822F040724A6001684A6883680F
:100260001A434A6001688A6822F400628A60016861
:100270008A68C3681A438A60C16A6FF07062D142AB
:1002800014D001688A6822F070628A6001688A6806
:10029000C36A1A438A6001688A6822F040528A6001
:1002A00001688A68036B1A438A6009E001688A68FA
:1002B00022F070628A6001688A6822F040528A6087
:1002C00001688A6822F002028A6001688A6883698C
:1002D00042EA43028A60416AC1B101684A6842F455
:1002E00000624A6001684A6822F460424A6001681C
:1002F0004A68836A4FF4604C9CFAACFC5B1EBCFA03
:100300008CFC03FA0CF31A434A6004E001684A6863
:1003100022F400624A600168CA6A22F47002CA626A
:100320000168CA6A038C5B1E42EA0352CA62016812
:100330008A6822F400728A6001688A68C36942EAA6
:1003400043228A6001688A6822F480628A600168B8
:100350008A68406942EA802088607047042301402F
:100360007047000000B583B0002103200B460091C8
:10037000019001224FF47041044800F0ADF80449A7
:100380004FF07040086003B000BD0000000C024058
:10039000180C0240014800F065BA0000380900203E
:1003A00001680A4BCAB2103AA3FB02321209084B89
:1003B0009B5C4365032A04D96FF30901091D01659C
:1003C00002E06FF309010165006D7047ABAAAAAAAC
:1003D000FC2A000810B4D0F800C0DCF8004024F477
:1003E0008024CCF80040D0F800C0CCF804308368FA
:1003F000402B05D0036899600068C26010BC70474C
:1004000003689A600068C16010BC7047A0F50030B6
:10041000C0F38F207047000000B5FFF7F7FF012100
:100420008140024802681143016000BD303802403B
:100430002DE9F04F0446DDF82880099F2046FFF79C
:10044000E5FFC6B200204FF0030E4FF0010C0CFA8E
:1004500000F50D4238D0DFF87CC03CF8169049EA30
:1004600005092CF81690D4F80CA04FEA400C0EFAAF
:100470000CF92AEA090A07FA0CFB4AEA0B0AC4F843
:100480000CA0D4F800A002FA0CFB2AEA090A4AEAF6
:100490000B0AC4F800A0012A01D0022A14D1D4F812
:1004A00004A0ADB22AEA050503FA00FA1FFA8AFA97
:1004B00045EA0A056560A56808FA0CFC25EA090505
:1004C00045EA0C0CC4F808C0401CC0B21028BCD3CC
:1004D000BDE8F08F400800202DE9F04182B00746CA
:1004E000099D089C0E469046002E09D03846FFF71D
:1004F00093FF42463146384601950094FFF798FF36
:1005000002B0BDE8F0812DE9F04F82B08046DDF801
:100510002C900C9F0E469246002E28D04046FFF7A6
:100520007BFF4FF0000C01200F2100FA0CF2324249
:100530000FD04FEADC0208EB8204226A4FEA4C75C6
:10054000ED0E01FA05FB22EA0B0207FA05F52A4334
:1005500022620CF1010CBCF1100FE6D30093CDF830
:1005600004905346022231464046FFF761FF02B035
:10057000BDE8F08F38B44FF0000CCDF800C090F813
:100580003C20012A1BD0012280F83C200A68072465
:10059000092A17D90368DD680A3A02EB420204FA15
:1005A00002F225EA0202DA600A788B680A3A02EB64
:1005B000420293400268D4682343D36014E038BCFD
:1005C0000220704703681D6902EB420204FA02F23E
:1005D00025EA02021A610A788B6802EB4202934014
:1005E00002681469234313614A681F24072A15D23D
:1005F00003685D6B521E02EB820204FA02F225EAE6
:1006000002025A630A8893B20A79521E02EB8202EE
:1006100093400268546B234353632CE00D2A15D298
:1006200003681D6BD21F02EB820204FA02F225EA74
:1006300002021A630A8893B20A79D21F02EB82027D
:1006400093400268146B2343136314E00368DD6A6C
:100650000D3A02EB820204FA02F225EA0202DA62A1
:100660000A8893B20A790D3A02EB8202934002683B
:10067000D46A2343D3621A4B02689A4208D10A68AB
:10068000122A05D1D3F8042342F48002C3F80423CC
:1006900002689A421ED10A68102A01D0112A19D183
:1006A000D3F8042342F40002C3F804230968102994
:1006B00010D10C490C4A0968B1FBF2F101EB810140
:1006C00049000091009929B10099491E00910099B3
:1006D0000029F9D180F83CC038BC002070470000E8
:1006E000002001400000002040420F00704770478A
:1006F000704770B50446002C04D094F83D000025E6
:1007000010B106E0012070BD84F83C50204600F096
:100710000FF8022084F83D002046FFF785FD256490
:10072000012084F83D0084F83C50002070BD00009A
:1007300070B586B005462868A0F18041B1F59031CA
:1007400027D11548016841F480710160006800F408
:1007500080700090022001900320029000260396F2
:1007600001A90E4800F0E2F90E4C0D4820606660C9
:10077000A660E66000152061400060618000A06115
:100780004011E06126626662204600F05BF9AC63CE
:10079000A56306B070BD0000443802400008024066
:1007A000106402403809002038B504468C46002504
:1007B000009594F83C00012828D0012084F83C00E2
:1007C0002068416841F0806141602068816841F49F
:1007D00080718160A16B1E48C863A16B1D480864CD
:1007E000A16B1D4888642068134600F14C016246E5
:1007F000A06B00F071F9122084F83D0084F83C50A1
:100800002068816811F0010F02D015E0022038BD88
:10081000816841F001018160104811490068B0FB16
:10082000F1F000EB40000090009828B10098401EC5
:10083000009000980028F9D12068816811F0405F8D
:1008400003D1816841F080418160002038BD000003
:10085000E50100081D020008050200080000002054
:1008600040420F002DE9F0410446256D286894F8B8
:100870005420082101FA02F210424FF004074FF011
:10088000000619D02068026812F0040F14D0026824
:1008900022F00402026094F8540001FA00F0A8600B
:1008A000E06C40F00100E06484F8357084F8346056
:1008B000A16C09B120468847286894F854205F4904
:1008C00001FA02F2104219D02068426912F0800F3A
:1008D00014D0426922F08002426194F8540001FA77
:1008E00000F0A860E06C40F00200E06484F835702D
:1008F00084F83460A16C09B120468847286894F8D0
:1009000054204F4901FA02F2104219D020680268BF
:1009100012F0020F14D0026822F00202026094F872
:10092000540001FA00F0A860E06C40F00400E064BC
:1009300084F8357084F83460A16C09B1204688478A
:10094000286894F85410102202FA01F108422ED0BF
:100950002068036813F0080F29D0036813F4802F70
:100960004FF0310310D0A9602068016811F4002F06
:1009700007D0006810F4002F15D0412084F835000E
:1009800011E084F835300EE0016811F4807F03D166
:10099000016821F00801016094F8540002FA00F0A7
:1009A000A86084F83530216C09B120468847286852
:1009B00094F85410202202FA01F108423BD020683A
:1009C000036813F0100F36D0036813F4802F17D08C
:1009D000A9602068016811F4002F0AD0006810F4A3
:1009E000002F28D0E16B002925D02046BDE8F0413A
:1009F0000847616C00291ED02046BDE8F041084739
:100A0000016811F4807F03D1016821F010010160B9
:100A100094F8540002FA00F0A860E06CE064112041
:100A200084F8350084F83460E16B002903D0204657
:100A3000BDE8F0410847BDE8F081000001008000FA
:100A40000400800070B50446002C27D0616A0220A3
:100A500084F83500226810681E4B1840D4F808C08E
:100A60006368256943EA0C03D4F80CC04CEA050C12
:100A700043EA0C03D4F814C043EA0C03D4F818C0BA
:100A800043EA0C03D4F81CC043EA0C03D4F820C09A
:100A900043EA0C031843042902D005E0012070BD8D
:100AA000236BE16A1943084310602268506920F003
:100AB0000700616A0843042901D1A16A0843506113
:100AC0002046FFF76DFC0020E064012084F835002B
:100AD000002070BD3F8010F010B5044694F834003B
:100AE000012820D0012084F83400022084F8350049
:100AF0002068D0F800C02CF0010CC0F800C02046DF
:100B0000FFF768FC2068016841F01E010160206861
:100B1000416941F0800141612068016841F00101B3
:100B20000160002010BD022010BD00002DE9F84F2B
:100B30000022DFF8F891DFF8F0814FF0010E0F2767
:100B400009F1040A0EFA02F50B682B40AB427CD186
:100B5000D1F804C0BCF1020F02D0BCF1120F14D1C5
:100B60004FEAD20C00EB8C04266A4FEA427C4FEA33
:100B7000DC6C07FA0CFB26EA0B06D1F810B00BFA76
:100B80000CFC4CEA060CC4F820C006684FEA420C84
:100B9000032404FA0CF4A64391F804B00BF0030B01
:100BA0000BFA0CFB4BEA060606604E68012E05D0D8
:100BB000022E03D0112E01D0122E11D18668A64329
:100BC000D1F80CB00BFA0CFB4BEA060686604668BF
:100BD00026EA05050E79C6F30016964035434560B2
:100BE000C56825EA04048D6805FA0CFC4CEA040C7F
:100BF000C0F80CC0D1F804C01CF0805F72D0D8F8E7
:100C000000C04CF4804CC8F800C0D8F800C00CF408
:100C1000804CCDF800C022F0030C0CF1804505F5A6
:100C20009835D5F808C89407240F07FA04F62CEA7B
:100C30000606A0F1804CBCF5003C59D0BCF5806C98
:100C400059D0BCF5806C59D000E04BE0BCF5806C0D
:100C500057D0BCF5806C57D0BCF5806C57D0BCF534
:100C6000806C57D0BCF5806C57D0BCF5806C57D0E9
:100C70004FF0090C0CFA04FC4CEA060CC5F808C845
:100C80002B4CD4F800C02CEA030C4D6815F4803FBF
:100C900001D04CEA030CC4F800C0D9F800C02CEA1B
:100CA000030C4C6814F4003F01D04CEA030CC9F863
:100CB00000C0DAF800C02CEA030C4C6814F4801F62
:100CC00001D04CEA030CCAF800C01A4CD4F800C09A
:100CD0002CEA030C4D6815F4001F01D04CEA030CFC
:100CE000C4F800C0521C102AFFF42CAFBDE8F88FE6
:100CF0004FF0000CBEE74FF0010CBBE74FF0020CC9
:100D0000B8E74FF0030CB5E74FF0040CB2E74FF033
:100D1000050CAFE74FF0060CACE74FF0070CA9E766
:100D20004FF0080CA6E7000044380240043C0140A4
:100D3000003C01400C3C0140014840687047000005
:100D40001000002070B51A484168491C41600168D4
:100D5000002902D00168491E01600024154E307838
:100D6000002821D906EB84056868C0B1017811F02C
:100D7000020F14D0816809B1491E816068688168DA
:100D800069B9C268016990476868416881606868AC
:100D9000017811F0010F02D121F002010170601CF5
:100DA000C4B23078A042DDD8FFF7DAFA70BD000097
:100DB000100000202808002010B50B48016841F4FD
:100DC00000710160016841F480610160016841F4D3
:100DD00080710160032000F065F8002000F006F843
:100DE00000F015F8002010BD003C024010B504468C
:100DF00000F0AAF94FF47A72B0FBF2F000F0C2FCF6
:100E000000222146501E00F019F8002010BD10B538
:100E1000072000F047F80022BDE810401146501EA0
:100E200000F00CB800F01F01012202FA01F14009A4
:100E3000800000F1E020C0F80011704710B4184B9A
:100E40001B68C3F30223C3F1070CBCF1040F01D9E3
:100E50004FF0040C1C1D072C01D2002300E0DB1E08
:100E6000012404FA0CFCACF1010C0CEA01019940DC
:100E700004FA03F35B1E1A401143002808DA00F05D
:100E80000F0000F1E020090180F8141D10BC70472C
:100E900000F1E020090180F8001410BC7047000048
:100EA0000CED00E000F00700064A11684FF6FF0362
:100EB000194041EA002040F0FD7040F08060106071
:100EC000704700000CED00E02DE9F04704460E46A7
:100ED000DFF868A2DAF80000994900F00F00994F96
:100EE00006F0FF0941F28838B04270D28AF80090CB
:100EF000DAF8000000F00F00B04202D00120BDE897
:100F0000F087207810F0020F05D03868A26820F032
:100F1000F00010433860207810F0010F49D060686D
:100F2000012808D002280DD003280BD0096811F041
:100F3000020F29D00AE0096811F4003F06D1012010
:100F4000BDE8F087096811F0007F1AD0396821F0F8
:100F5000030108433860FFF7EFFE0546606801288B
:100F600015D0022826D003283BD0386810F00C0F8B
:100F70001FD0FFF7E1FE401B404539D90320BDE8F3
:100F8000F0870120BDE8F0870120BDE8F0873868D0
:100F900000F00C0004280CD0FFF7CEFE401B4045AB
:100FA00002D90320BDE8F087386800F00C0004285F
:100FB000F2D1A8E0386800F00C00082870D0FFF7E4
:100FC000BBFE401B404503D90320BDE8F08714E079
:100FD000386800F00C000828F1D194E00320BDE847
:100FE000F0873868FFF7A8FE401B4045F9D9F5E7C0
:100FF000386810F00C0FBCD185E0207810F0020F9B
:1010000005D03868A26820F0F000104338602078DE
:1010100010F0010F6CD06068012808D002280DD0B4
:1010200003280BD0096811F0020F29D00AE00968E3
:1010300011F4003F06D10120BDE8F087096811F0E6
:10104000007F1AD0396821F0030108433860FFF7A8
:1010500073FE05466068012815D0022827D00328B2
:101060003BD0386810F00C0F42D0FFF765FE401BF4
:10107000404539D90320BDE8F0870120BDE8F0875D
:101080000120BDE8F087386800F00C0004282FD05C
:10109000FFF752FE401B404503D90320BDE8F0870F
:1010A00031E0386800F00C000428F1D120E0386805
:1010B00000F00C0008281BD0FFF73EFE401B404507
:1010C00002D90320BDE8F087386800F00C0008283A
:1010D000F2D10DE00320BDE8F0873868FFF72CFE61
:1010E000401B4045F9D9F5E7386810F00C0FBCD12A
:1010F0008AF80090DAF8000000F00F00B04202D049
:101100000120BDE8F087207810F0040F05D0386882
:10111000E16820F4E05008433860207810F0080FB0
:1011200006D03868216920F4604040EAC100386088
:101130000020FFF75BFE0020BDE8F087003C024086
:10114000003802400838024010B500F043F8084962
:101150000968F02292FAA2F201F0F001B2FA82F2EA
:10116000D140044A515CC8400349086010BD0000EA
:1011700008380240EC2A00080000002010B5FFF7F4
:10118000E3FF074909684FF4E05292FAA2F201F432
:10119000E051B2FA82F2D140024A515CC84010BD1F
:1011A00008380240EC2A000810B5FFF7CDFF0749C8
:1011B00009684FF4604292FAA2F201F46041B2FA77
:1011C00082F2D140024A515CC84010BD083802404A
:1011D000EC2A000810B41F48006810F00C011E48EB
:1011E0001BD04FEA600C042916D0082915D11B4AE0
:1011F000116801F03F01136813F4800F47F6C073C4
:101200000DD0BCFBF1F01168194093FAA3F3B3FAC7
:1012100083F3D94048430CE0604610BC7047B0FBF4
:10122000F1F01168194093FAA3F3B3FA83F3D940AC
:10123000484311684FF4403292FAA2F201F440316F
:10124000B2FA82F2D140491C4900B0FBF1F010BC67
:1012500070470000083802400024F40004380240BF
:101260002DE9F84F0446DFF8E8B32078F94D10F087
:10127000010F4FF0000741F2883660D0DBF8000024
:1012800000F00C0004280AD0DBF8000000F00C008D
:1012900008280DD1281D006810F4800F08D0286898
:1012A00010F4003F4BD0606878BB0120BDE8F88F98
:1012B000DFF8A49389F80070FFF73EFD80462868A8
:1012C00010F4003F0CD0FFF737FDA0EB0800B04250
:1012D00002D90320BDE8F88F286810F4003FF2D14E
:1012E000207989F800006068A8B1FFF725FD8046E5
:1012F000286810F4003F22D1FFF71EFDA0EB080084
:10130000B04203D90320BDE8F88F18E0286810F434
:10131000003FF1D013E0FFF70FFD8046286810F47E
:10132000003F0CD0FFF708FDA0EB0800B04202D947
:101330000320BDE8F88F286810F4003FF2D1207830
:10134000DFF8188310F0020F64D0DBF800004FF0D4
:10135000F80A10F00C0F17D0DBF8000000F00C00BA
:10136000082804D1BE48006810F4800F0CD0E06853
:10137000C8B30120C8F80000FFF7DEFC81462868EA
:1013800010F0020F16D022E0286810F0020F05D0EE
:10139000E068012802D00120BDE8F88F28689AFA99
:1013A000AAF22169B2FA82F220F0F80091400843D3
:1013B00028602FE0FFF7C0FCA0EB0900642802D9E9
:1013C0000320BDE8F88F286810F0020FF2D02868DB
:1013D0009AFAAAF22169B2FA82F220F0F80091405A
:1013E0000843286016E0FFE7C8F80070FFF7A4FC88
:1013F0008146286810F0020F0CD0FFF79DFCA0EB8F
:101400000900642802D90320BDE8F88F286810F08D
:10141000020FF2D1207810F0080F34D09148DFF895
:1014200048A26169C1B101210160FFF785FC8146D5
:10143000DAF8000010F0020F25D1FFF77DFCA0EBD9
:101440000900642802D90320BDE8F88FDAF800000B
:1014500010F0020FF1D016E00760FFF76DFC814637
:10146000DAF8000010F0020F0DD0FFF765FCA0EBDA
:101470000900642802D90320BDE8F88FDAF80000DB
:1014800010F0020FF1D1207810F0040F72D07748DD
:10149000016841F080510160006800F080500090C8
:1014A000DFF8CCA1DAF8000040F48070CAF8000040
:1014B000FFF742FC8146DAF8000010F4807F0DD17E
:1014C000FFF73AFCA0EB0900642802D90320BDE82D
:1014D000F88FDAF8000010F4807FF1D0DFF894A1E3
:1014E0008AF80070FFF728FC8146DAF8000010F057
:1014F000020F0DD0FFF720FCA0EB0900B04202D98B
:101500000320BDE8F88FDAF8000010F0020FF1D1E7
:10151000207A8AF80000A068B0B1FFF70DFC814680
:10152000DAF8000010F0020F24D1FFF705FCA0EB61
:101530000900B04202D90320BDE8F88FDAF80000B4
:1015400010F0020FF1D015E0FFF7F6FB8146DAF854
:10155000000010F0020F0DD0FFF7EEFBA0EB09002A
:10156000B04202D90320BDE8F88FDAF8000010F08D
:10157000020FF1D1A069E8B3DBF8001001F00C0113
:10158000082979D0022810D0C8F86070FFF7D4FB82
:101590000446286810F0007F74D0FFF7CDFB001BD5
:1015A00064286BD90320BDE8F88FC8F86070FFF796
:1015B000C3FB0646286810F0007F0BD0FFF7BCFB8A
:1015C000801B642802D90320BDE8F88F286810F03A
:1015D000007FF3D1216AE069626A014347F6C07077
:1015E00090FAA0F0B0FA80F002FA00F04FF0FF336A
:1015F000A26A00E046E003EB52024FF4403393FA54
:10160000A3F3B3FA83F39A40104308434FF0706298
:1016100092FAA2F2E16AB2FA82F2914001431048D2
:1016200001600120C8F86000FFF786FB04462868C7
:1016300010F0007F26D1FFF77FFB001B642802D942
:101640000320BDE8F88F286810F0007FF3D019E080
:101650000838024000380240023802400000474289
:1016600004380240800E474274380240403802403D
:10167000007000407038024007E0FFE7286810F073
:10168000007F8AD10020BDE8F88F0120BDE8F88FE7
:1016900070B50446002C04D094F85100002510B118
:1016A00006E0012070BD84F85050204600F034F868
:1016B000022084F851002068016821F04001016097
:1016C000A168606822690843E168114308436169C1
:1016D0000843218B01F400710843E1690843216A42
:1016E0000843A16A084321680860A069042101EA4F
:1016F0001040616A0843216848602168E06A086117
:101700002068C16921F40061C1616565012084F828
:101710005100002070BD000000B587B00068A0F146
:101720008041B1F5983116D10C48016841F48051DF
:101730000160006800F480500190E02002900220D7
:10174000039001200490002005900520069002A936
:101750000348FFF7EBF907B000BD00004438024032
:10176000000002404FF0E021042804D0086920F076
:10177000040008617047086940F004000861704780
:1017800070470000401EB0F1807F01D301207047F8
:101790004FF0E0214861044AF02010700020886179
:1017A000072008610020704723ED00E010B5FFF727
:1017B000E7FF10BD7047704710B490F83820012A39
:1017C0002AD0012380F83830022280F839200268BC
:1017D000D2F804C02CF0700CC2F804C00268D2F831
:1017E00004C00C684CEA040CC2F804C00268D2F8C9
:1017F00008C02CF0800CC2F808C00268D2F808C0FB
:1018000049684CEA0101916080F83930002180F884
:10181000381010BC0020704710BC0220704710B573
:101820000446002C03D094F8390010B107E00120E1
:1018300010BD002084F83800204600F00DF802208A
:1018400084F83900211D206800F00EFF012084F883
:101850003900002010BD000008B50068B0F1804FCD
:1018600012D10A48016841F001010160006800F0EE
:1018700001000090002211461C20FFF7DFFABDE8AE
:1018800008401C20FFF7CEBA08BD000040380240D7
:10189000022180F8391001680A6842F001020A60EA
:1018A000012180F839100020704770B5044694F883
:1018B0003800012818D0012584F83850022084F817
:1018C00039002068826822F0770222F47F42826029
:1018D000086850283AD00EDC20285FD006DC0028AB
:1018E00052D0102863D154E0022070BD30285AD065
:1018F00040285CD13EE0602832D070280CD0B0F592
:10190000805F03D0B0F5005F51D113E0206881689B
:1019100021F0070181604AE0CB684A688968206845
:1019200000F0FCFE2068816821F0770141F077012A
:1019300081603CE0CB684A688968206800F0EEFE70
:101940002068816841F48041816030E0CA6849685C
:10195000206800F0F6FE5021206800F0EAFE26E044
:10196000CA684968206800F0FFFE6021206800F026
:10197000E0FE1CE0CA684968206800F0E2FE4021F1
:10198000206800F0D6FE12E00021206800F0D1FEB1
:101990000DE01021206800F0CCFE08E02021206836
:1019A00000F0C7FE03E03021206800F0C2FE84F89A
:1019B0003950002084F8380070BD704770B5044677
:1019C000206801694FF0000511F0020F17D0C168BF
:1019D00011F0020F13D0E91E01610120207620686A
:1019E000806910F0030F03D02046FFF7E6FF05E003
:1019F000204600F09DF8204600F09BF825762068F0
:101A0000016911F0040F18D0C16811F0040F14D04F
:101A10006FF004010161022020762068806910F4D3
:101A2000407F03D02046FFF7C8FF05E0204600F0C6
:101A30007FF8204600F07DF825762068016911F0D6
:101A4000080F18D0C16811F0080F14D06FF008010A
:101A50000161042020762068C06910F0030F03D0D4
:101A60002046FFF7AAFF05E0204600F061F8204677
:101A700000F05FF825762068016911F0100F18D08A
:101A8000C16811F0100F14D06FF01001016108202F
:101A900020762068C06910F4407F03D02046FFF70D
:101AA0008CFF05E0204600F043F8204600F041F8A6
:101AB00025762068016911F0010F09D0C16811F085
:101AC000010F05D06FF001010161204600F032F8EE
:101AD0002068016911F0800F09D0C16811F0800FF2
:101AE00005D06FF0800101612046FFF763FE20689A
:101AF000016911F0400F09D0C16811F0400F05D005
:101B00006FF040010161204600F015F8206801697E
:101B100011F0200F0BD0C16811F0200F07D06FF02B
:101B2000200101612046BDE87040FFF744BE70BD52
:101B3000704770477047704770B50446002C04D05A
:101B400094F83900002510B106E0012070BD84F83A
:101B50003850204600F020F8022084F83900206830
:101B6000C16821F40051C160204600F00FFE2068DA
:101B7000016921F4904101612068416921F02A0145
:101B800041612068C16841F40051C160E5630120F2
:101B900084F83900002070BD00B587B00068A0F15E
:101BA0008041B1F5884116D10C48016841F40031FB
:101BB0000160006800F4003001900C2002900220C7
:101BC000039001200490032005900720069002A9AD
:101BD0000348FEF7ABFF07B000BD000040380240ED
:101BE0000000024030B585B01148104901604FF443
:101BF00040314160002484600461846144624FF09C
:101C0000805101634FF0C061C162C460012505626B
:101C1000C5614561FEF76DFD0B20009001950294B2
:101C200069460348FEF7A6FC05B030BD0020014020
:101C3000F408002008B50948016841F480010160FA
:101C4000006800F480000090002211463820FFF761
:101C5000F5F8BDE808403820FFF7E4B83038024016
:101C60002DE9F04F87B06348016841F01001016031
:101C7000016801F010010191016841F00401016067
:101C8000016801F004010191016841F080010160E7
:101C9000016801F080010191016841F001010160DA
:101CA000016801F001010191016841F00201016048
:101CB000016801F002010191016841F00801016031
:101CC000006800F00800019008260296012503959F
:101CD00004950024059402A94748FEF727FF0295C2
:101CE00003950494059402A94448FEF71FFF029649
:101CF00002260396049405940527069702A93F48F7
:101D0000FEF714FF0295DFF8F880CDF80C800494FC
:101D100002A93C48FEF70AFF1020029003960494A3
:101D200005944FF00609CDF8189002A93548FEF742
:101D3000FDFE4FF0040ACDF808A003940494DFF8E8
:101D4000C8B002A95846FEF7F1FEA8020290039619
:101D500004940594069702A95846FEF7E7FE4FF251
:101D600010000290039504940594284F02A9384668
:101D7000FEF7DCFE4FF4A450029003960494059401
:101D8000CDF8189002A91D48FEF7D0FE6802029017
:101D90000394049402A91B48FEF7C8FE4FF4E050D8
:101DA00002900396049405940A20069002A915480F
:101DB000FEF7BCFE202002900394049402A938464A
:101DC000FEF7B4FE4FF410700290122003900495B9
:101DD0000594CDF818A002A95846FEF7A7FE029672
:101DE000CDF80C80049402A90348FEF79FFE07B0CB
:101DF000BDE8F08F30380240001002400008024079
:101E0000000012100000024000040240000C0240DA
:101E10000C480B4901604FF48271416000218160E0
:101E2000C160016101224261520282613822C261B5
:101E30000162416281620A21C162FFF729BC000090
:101E4000003001405C08002000B587B00E484FF01C
:101E5000804101600021416081604AF6E522C26054
:101E60000161FFF7DCFC4FF48050029002A90648A4
:101E7000FFF71BFD2020009080200190694602485A
:101E8000FFF79AFC07B000BD9009002008480749F9
:101E900001604FF4E131416000218160C160016166
:101EA0000C2242618161C161FFF746BE00440040DF
:101EB000B40800207021072000F0F0B910B5054CDF
:101EC0004FF400002060FF21034800F0CAFA80218F
:101ED000216010BD180C02400038004010B5FFF71B
:101EE000EDFF10F0200F01D0012010BD10F0100FF9
:101EF00001D0002010BDFF2010BD00002DE9F041F1
:101F000006460D4600F066F82F4F0121384600F0D6
:101F100097FA0A2D00D90A25002E53D000212B4C08
:101F2000617025700320A0700020E07000F0E4F8DC
:101F3000304600F093F82178112000F0AFF92178B5
:101F4000122000F0ABF92178132000F0A7F92178D6
:101F5000142000F0A3F92178152000F09FF92178D2
:101F6000162000F09BF9A178E07800F095F80821A0
:101F7000002000F093F93F21012000F08FF93F216C
:101F8000022000F08BF94F21042000F087F9002196
:101F90001C2000F083F90E4C4FF400062660E1216E
:101FA000384600F05EFA802525602660E22138463A
:101FB00000F057FA2560FFF77DFF00F02BF80120B5
:101FC000BDE8F0810121AAE7003800401800002098
:101FD000180C024070B582B0002501240B4E2B4630
:101FE00022468021304601950094FEF775FA0122C1
:101FF00000231102304601950094FEF76DFA044863
:10200000802101604904016002B070BD000C0240F3
:10201000180C024010B50A4C4FF080702060401040
:102020002060E221074800F01CFA80202060FFF7C2
:1020300041FF0B21002000F031F9A015206010BDF8
:10204000180C02400038004010B5FFF733FF0A219A
:10205000BDE81040002000F021B900007D2808D81C
:1020600004494A78824204D048700146052000F0B5
:1020700015B970471800002010B5064C4FF080725B
:102080002260014605220B2000F022F9A0152060F5
:1020900010BD0000180C02400A4600210E4BD870FB
:1020A0009A70002802D0022802D002E0082100E045
:1020B0002021032A04D0022A05D0012A06D007E0F5
:1020C00041F0060104E041F0040101E041F00201A9
:1020D000062000F0E3B800001800002010B5044608
:1020E000052221460A2000F0F3F821460522BDE82A
:1020F0001040102000F0ECB810B582B0082100208C
:1021000000F0CCF83F21012000F0C8F803210220A4
:1021100000F0C4F80321084600F0C0F803210420B1
:1021200000F0BCF80221052000F0B8F80E210620CE
:1021300000F0B4F80E21072000F0B0F800210820CC
:1021400000F0ACF80021092000F0A8F8E7248DF891
:1021500000408DF801408DF802408DF803408DF865
:102160000440052269460A2000F0B2F8C2208DF82A
:1021700000008DF801008DF802008DF803008DF845
:102180000400052269460B2000F0A2F8C3210C20B0
:1021900000F084F8C4210D2000F080F8C5210E2045
:1021A00000F07CF8C6210F2000F078F88DF8004090
:1021B0008DF801408DF802408DF803408DF8044001
:1021C00005226946102000F083F80021112000F05C
:1021D00065F80021122000F061F80021132000F0C2
:1021E0005DF80021142000F059F80021152000F0BE
:1021F00055F80021162000F051F81121172000F0A9
:102200004DF800211C2000F049F800211D2000F0AD
:1022100045F802B010BD00002DE9F04780461C488B
:1022200007784FF4D2731B4D4FF080702860591E11
:102230008BB2FCD24FF4D274FFF706FF4FF40009C3
:10224000C5F80090DFF850A0E121504600F009F9F0
:1022500080262E60611E8CB2FCD24FF4D274C5F879
:102260000090A021504600F0FCF8611E8CB2FCD218
:102270004FF4D2743A464146504600F00CF9611EC4
:102280008CB2FCD22E604FF480702860BDE8F087DD
:1022900018000020180C02400038004070B50D46B0
:1022A000094C4FF40001216000F01F00074E40F080
:1022B0002001304600F0D5F82946304600F0D1F82C
:1022C0008020206070BD0000180C024000380040E3
:1022D0002DE9F0410D4616460A4C4FF400012160ED
:1022E00000F01F00084F40F02001384600F0B9F818
:1022F00032462946384600F0CEF880202060BDE8FE
:10230000F0810000180C02400038004030B593B056
:102310001F48016841F080510160006800F0805062
:1023200001901C48016841F480410160006800F49C
:1023300080400190012002900390002505958005C2
:1023400009900224089408200A904FF4B4700B906E
:102350000C9407200D9002A8FEF782FF10B113B075
:10236000012030BD0F9410950F200E904FF4A05017
:1023700011904FF48050129006210EA8FEF7A4FD94
:1023800010B113B0012030BD13B0002030BD0000EB
:1023900040380240007000402DE9F04182B0044610
:1023A000DFF88C8005260325002C10D100231A4667
:1023B0004FF48061404601960095FEF7A4F8002393
:1023C0001A460C211B4801960095FEF79CF8012C3B
:1023D00008D100231A464FF460414046019600950B
:1023E000FEF791F8144F022C07D100231A460D2155
:1023F000384601960095FEF786F8032C0FD100238E
:102400001A46A103404601960095FEF77CF800238A
:102410001A460221384601960095FEF774F8042CFE
:1024200003D10521054800F01BF802B0BDE8F0819A
:102430000004024000080240002002400038004032
:1024400000B583B000204FF48272009201900246E2
:102450002023024800F03CF803B000BD00380040E3
:102460007047026812F0400F01D100207047826867
:1024700012F0020FFBD0826812F0800FF7D10173C7
:10248000816811F0010FFBD0816811F0800FF7D146
:10249000C068C0B27047036813F0400F17D0531ED6
:1024A00015D3826812F0020FFBD0826812F0800F01
:1024B000F7D111F8012B0273826812F0010FFBD0E3
:1024C000826812F0800FF7D182895B1EE9D27047D3
:1024D000F0B599B014461F9E1E9D1F4602901F48DE
:1024E000026842F480420260006800F4804001907B
:1024F0000846FFF751FF0020059009970A960395BB
:102500000C9007210D910B904FF4007108910490ED
:1025100044B10121012C08D00222022C08D0032C46
:1025200009D00AE00690079007E00690079104E0C2
:102530000692079001E006920791029800680299BE
:1025400020F04000086002A8FFF7A2F80298006897
:10255000029940F04000086019B0F0BD40380240D8
:1025600010B5FEF7EFFBBDE81040FFF71FB9000004
:1025700010B592B02148016841F0805101600068B7
:1025800000F0805000901E48016841F480410160D5
:10259000006800F48040009001200690079002241B
:1025A0000C9480050D9008200E904FF4A8700F90A9
:1025B00010940720119006A8FEF752FE0D200190FE
:1025C0000294002003904FF4A0500490E002059084
:1025D000052101A8FEF778FCFEF7B6FD4FF47A71ED
:1025E000B0FBF1F0FFF7CEF80420FFF7BBF80022B4
:1025F0001146501EFEF722FC12B010BD40380240BA
:10260000007000400F48016841F4700101600E48FD
:10261000016841F0010101600C4A0021116002686B
:1026200022F4102222F080720260031D084A1A6010
:10263000026822F4802202600648016006495806BA
:102640000860704788ED00E000380240083802401A
:10265000103000240C38024008ED00E00148FFF77C
:10266000ADB9000090090020F0B40268264BDFF8F5
:102670009CC0274D274E284C98420AD0B0F1804F7D
:1026800007D0604505D0A84203D0B04201D0A04297
:1026900003D122F070024F683A4398421ED0B0F145
:1026A000804F1BD0604519D0A84217D0B04215D03A
:1026B000A04213D0A0F1804CBCF5A03C0ED0BCF5DC
:1026C000806C0BD0BCF5806C08D01CF5983C05D014
:1026D000BCF5806C02D0BCF5806C05D122F4407250
:1026E000D1F80CC04CEA020202608A68C2620A6831
:1026F0008262984201D0A04201D10969016301219F
:102700004161F0BC7047000000000140000400403F
:1027100000080040000C004000040140D0F808C050
:102720002CF47F4C42EA0322114341EA0C01816000
:102730007047826822F07002114341F00701816006
:102740007047036AD0F820C02CF0010CC0F820C0FC
:10275000D0F818C02CF0F00C4CEA021223F00A0357
:102760001943826101627047036A23F01003036218
:10277000D0F818C0036A2CF4704C4CEA023223F0F3
:10278000A00343EA01118261016270472DE9F04123
:1027900004462068016921F44051E2681143016157
:1027A0002068C16821F4037121F414412369A268EF
:1027B000D4F81CC01A43636943EA0C031A4311435B
:1027C000C1602068416921F44071A26911434161EF
:1027D000E069714A7149724D3226B0F5004F38D028
:1027E0002068884201D090427ED1FEF7DDFC00EBEC
:1027F000C00101EB001061688900B0FBF1F0A5FB9E
:1028000000104709FEF7D0FC00EBC00101EB0010FF
:1028100061688900B0FBF1F8FEF7C6FC00EBC0016F
:1028200001EB001061688900B0FBF1F0A5FB00101E
:1028300040096FF01801484308EB800006EB0010D8
:10284000A5FB00102168400967F31F108860BDE8F0
:10285000F0812068884201D0904233D1FEF7A4FC79
:1028600000EBC00101EB001061684900B0FBF1F022
:10287000A5FB00104709FEF797FC00EBC00101EB38
:10288000001061684900B0FBF1F8FEF78DFC00EB29
:10289000C00101EB001061684900B0FBF1F0A5FB3D
:1028A000001040096FF01801484308EB800006EB68
:1028B0000010A5FB00102168400967F31F10886015
:1028C000BDE8F081FEF75AFC00EBC00101EB0010FF
:1028D00061684900B0FBF1F0A5FB00104709FEF765
:1028E0004DFC00EBC00100E022E001EB001061684C
:1028F0004900B0FBF1F8FEF741FC00EBC00101EB31
:10290000001061684900B0FBF1F0A5FB0010400920
:102910006FF01801484308EB800006EB0010A5FBA0
:1029200000102168400967F31F108860BDE8F0813E
:10293000FEF724FC00EBC00101EB00106168890088
:10294000B0FBF1F0A5FB00104709FEF717FC00EB08
:10295000C00101EB001061688900B0FBF1F8FEF7DF
:102960000DFC00EBC00101EB001061688900B0FBB9
:10297000F1F0A5FB001040096FF01801484308EB87
:10298000800006EB0010A5FB00102168400967F3EA
:102990001F108860BDE8F081001401400010014064
:1029A0001F85EB510FB4084610B5064A02A900F086
:1029B0001AF8044602A9002000F026F8204610BCB0
:1029C0005DF814FB092A000802E008C8121F08C1BC
:1029D000002AFAD170477047002001E001C1121FA0
:1029E000002AFBD170472DE9F04116460F460446F8
:1029F000002503E03946B047641C6D1C2078002890
:102A0000F8D12846BDE8F0810A68531C0B601070AD
:102A100070470000FEF7D0F9FFF7AAFDFFF720F995
:102A2000FFF708F9FFF7DEF8FFF7F2F9FFF70CFA06
:102A3000FFF72CFAFFF76AFCFDF794FC0A210F2040
:102A4000FFF75CFA03210220FFF726FB1C48FFF783
:102A500013FB1C48FFF742FB4FF480621A491B48E6
:102A6000FDF7A2FE1A48FEF713FF4FF48057194DE9
:102A7000194CFE004FF480484FF400594FF0805A33
:102A80004FF0004B15A11848FFF78CFF1648FFF7D1
:102A9000C3FB2760FFF722FA28702660FF28F9D0D1
:102AA000C4F80080FFF7B6FAC4F80090C4F800A09C
:102AB000C4F800B04FF08040206040102060E1E793
:102AC000050000200A00002026000020F408002055
:102AD0009009002004000020180C02406162636429
:102AE00065666768696A00001C000020000000003D
:102AF0000102030401020304060708090006101678
:102B000000061016242B0008000000201C00000006
:102B1000C8290008402B00081C000020B40D00004C
:102B2000D82900080024F40000E7E7E7E7E77E7E05
:102B30007E7E7E000000000000000000000000001B
:040000050800018965
:00000001FF
