:020000040800F2
:10000000C80400209D010008A5010008A701000800
:10001000A9010008AB010008AD01000800000000C4
:10002000000000000000000000000000AF01000818
:10003000B101000800000000B30100080119000828
:10004000B7010008B7010008B7010008B7010008B0
:10005000B7010008B7010008B7010008B7010008A0
:10006000B7010008B7010008B7010008B701000890
:10007000B7010008B7010008B7010008B701000880
:10008000B7010008B7010008B7010008B701000870
:10009000B7010008B7010008B7010008B701000860
:1000A000B7010008B7010008B7010008B701000850
:1000B000B7010008B7010008B7010008B701000840
:1000C000B7010008B7010008B7010008B701000830
:1000D000B7010008B7010008B7010008B701000820
:1000E000B7010008B7010008B7010008B701000810
:1000F000B7010008B7010008B7010008B701000800
:10010000B7010008B7010008B7010008B7010008EF
:10011000B7010008B7010008B7010008B7010008DF
:10012000B7010008B7010008B7010008B7010008CF
:10013000B7010008B7010008B7010008B7010008BF
:10014000B7010008B7010008B7010008B7010008AF
:10015000B7010008B7010008B7010008B70100089F
:10016000B7010008B7010008B7010008B70100088F
:10017000B7010008B7010008B7010008000000003F
:10018000B7010008B7010008DFF80CD000F02EF826
:1001900000480047BD1D0008C804002006488047ED
:1001A00006480047FEE7FEE7FEE7FEE7FEE7FEE75C
:1001B000FEE7FEE7FEE7FEE7A51900088901000853
:1001C00030B50B46014600202022012409E021FA27
:1001D00002F59D4205D303FA02F5491B04FA02F524
:1001E0002844151EA2F10102F1DC30BD064C074D7A
:1001F00006E0E06840F0010394E8070098471034F7
:10020000AC42F6D3FFF7C4FF981E0008B81E0008E2
:100210007047000000B583B0002103200B46009119
:10022000019001224FF47041044800F071F8044934
:100230004FF07040086003B000BD0000000C0240A9
:10024000180C0240A0F50030C0F38F20704700006A
:1002500000B5FFF7F7FF0121814002480268114312
:10026000016000BD303802402DE9F04F0446DDF852
:100270002880099F2046FFF7E5FFC6B200204FF017
:10028000030E4FF0010C0CFA00F50D4238D0DFF8E8
:100290007CC03CF8169049EA05092CF81690D4F871
:1002A0000CA04FEA400C0EFA0CF92AEA090A07FAE8
:1002B0000CFB4AEA0B0AC4F80CA0D4F800A002FA1E
:1002C0000CFB2AEA090A4AEA0B0AC4F800A0012A30
:1002D00001D0022A14D1D4F804A0ADB22AEA05054F
:1002E00003FA00FA1FFA8AFA45EA0A056560A5686A
:1002F00008FA0CFC25EA090545EA0C0CC4F808C00C
:10030000401CC0B21028BCD3BDE8F08FA80000206C
:100310002DE9F04182B00746099D089C0E469046A3
:10032000002E09D03846FFF793FF42463146384643
:1003300001950094FFF798FF02B0BDE8F0812DE928
:10034000F04F82B08046DDF82C900C9F0E4692460E
:10035000002E28D04046FFF77BFF4FF0000C012015
:100360000F2100FA0CF232420FD04FEADC0208EB08
:100370008204226A4FEA4C75ED0E01FA05FB22EA6F
:100380000B0207FA05F52A4322620CF1010CBCF1BD
:10039000100FE6D30093CDF8049053460222314665
:1003A0004046FFF761FF02B0BDE8F08F2DE9F84F3E
:1003B0000022DFF8F891DFF8F0814FF0010E0F27EF
:1003C00009F1040A0EFA02F50B682B40AB427CD10E
:1003D000D1F804C0BCF1020F02D0BCF1120F14D14D
:1003E0004FEAD20C00EB8C04266A4FEA427C4FEABB
:1003F000DC6C07FA0CFB26EA0B06D1F810B00BFAFE
:100400000CFC4CEA060CC4F820C006684FEA420C0B
:10041000032404FA0CF4A64391F804B00BF0030B88
:100420000BFA0CFB4BEA060606604E68012E05D05F
:10043000022E03D0112E01D0122E11D18668A643B0
:10044000D1F80CB00BFA0CFB4BEA06068660466846
:1004500026EA05050E79C6F3001696403543456039
:10046000C56825EA04048D6805FA0CFC4CEA040C06
:10047000C0F80CC0D1F804C01CF0805F72D0D8F86E
:1004800000C04CF4804CC8F800C0D8F800C00CF490
:10049000804CCDF800C022F0030C0CF1804505F52E
:1004A0009835D5F808C89407240F07FA04F62CEA03
:1004B0000606A0F1804CBCF5003C59D0BCF5806C20
:1004C00059D0BCF5806C59D000E04BE0BCF5806C95
:1004D00057D0BCF5806C57D0BCF5806C57D0BCF5BC
:1004E000806C57D0BCF5806C57D0BCF5806C57D071
:1004F0004FF0090C0CFA04FC4CEA060CC5F808C8CD
:100500002B4CD4F800C02CEA030C4D6815F4803F46
:1005100001D04CEA030CC4F800C0D9F800C02CEAA2
:10052000030C4C6814F4003F01D04CEA030CC9F8EA
:1005300000C0DAF800C02CEA030C4C6814F4801FE9
:1005400001D04CEA030CCAF800C01A4CD4F800C021
:100550002CEA030C4D6815F4001F01D04CEA030C83
:10056000C4F800C0521C102AFFF42CAFBDE8F88F6D
:100570004FF0000CBEE74FF0010CBBE74FF0020C50
:10058000B8E74FF0030CB5E74FF0040CB2E74FF0BB
:10059000050CAFE74FF0060CACE74FF0070CA9E7EE
:1005A0004FF0080CA6E7000044380240043C01402C
:1005B000003C01400C3C014001484068704700008D
:1005C0001000002070B51A484168491C416001685C
:1005D000002902D00168491E01600024154E3078C0
:1005E000002821D906EB84056868C0B1017811F0B4
:1005F000020F14D0816809B1491E81606868816862
:1006000069B9C26801699047686841688160686833
:10061000017811F0010F02D121F002010170601C7C
:10062000C4B23078A042DDD8FFF7F2FD70BD000003
:10063000100000209000002010B50B48016841F424
:1006400000710160016841F480610160016841F45A
:1006500080710160032000F059F8002000F006F8D6
:1006600000F015F8002010BD003C024010B5044613
:1006700000F09EF94FF47A72B0FBF2F000F0B4FC97
:1006800000222146501E00F00DF8002010BD10B5CC
:10069000072000F03BF80022BDE810401146501E34
:1006A000AFF3008010B4184B1B68C3F30223C3F1EF
:1006B000070CBCF1040F01D94FF0040C1C1D072CD2
:1006C00001D2002300E0DB1E012404FA0CFCACF193
:1006D000010C0CEA0101994004FA03F35B1E1A4075
:1006E0001143002808DA00F00F0000F1E0200901B2
:1006F00080F8141D10BC704700F1E020090180F85B
:10070000001410BC704700000CED00E000F0070082
:10071000064A11684FF6FF03194041EA002040F0F5
:10072000FD7040F080601060704700000CED00E04C
:100730002DE9F04704460E46DFF868A2DAF800001B
:10074000994900F00F00994F06F0FF0941F28838EF
:10075000B04270D28AF80090DAF8000000F00F0082
:10076000B04202D00120BDE8F087207810F0020FDF
:1007700005D03868A26820F0F00010433860207877
:1007800010F0010F49D06068012808D002280DD070
:1007900003280BD0096811F0020F29D00AE009687C
:1007A00011F4003F06D10120BDE8F087096811F07F
:1007B000007F1AD0396821F0030108433860FFF741
:1007C000FBFE05466068012815D0022826D00328C4
:1007D0003BD0386810F00C0F1FD0FFF7EDFE401B28
:1007E000404539D90320BDE8F0870120BDE8F087F6
:1007F0000120BDE8F087386800F00C0004280CD018
:10080000FFF7DAFE401B404502D90320BDE8F08720
:10081000386800F00C000428F2D1A8E0386800F035
:100820000C00082870D0FFF7C7FE401B404503D9D5
:100830000320BDE8F08714E0386800F00C000828B9
:10084000F1D194E00320BDE8F0873868FFF7B4FEEB
:10085000401B4045F9D9F5E7386810F00C0FBCD1C2
:1008600085E0207810F0020F05D03868A26820F0EB
:10087000F00010433860207810F0010F6CD06068F1
:10088000012808D002280DD003280BD0096811F0E8
:10089000020F29D00AE0096811F4003F06D10120B7
:1008A000BDE8F087096811F0007F1AD0396821F09F
:1008B000030108433860FFF77FFE054660680128A2
:1008C00015D0022827D003283BD0386810F00C0F31
:1008D00042D0FFF771FE401B404539D90320BDE8E7
:1008E000F0870120BDE8F0870120BDE8F087386877
:1008F00000F00C0004282FD0FFF75EFE401B40459F
:1009000003D90320BDE8F08731E0386800F00C001F
:100910000428F1D120E0386800F00C0008281BD032
:10092000FFF74AFE401B404502D90320BDE8F0878F
:10093000386800F00C000828F2D10DE00320BDE873
:10094000F0873868FFF738FE401B4045F9D9F5E7D6
:10095000386810F00C0FBCD18AF80090DAF800006B
:1009600000F00F00B04202D00120BDE8F0872078EF
:1009700010F0040F05D03868E16820F4E050084317
:100980003860207810F0080F06D03868216920F40C
:10099000604040EAC10038600020FFF767FE002099
:1009A000BDE8F087003C02400038024008380240B1
:1009B00010B500F043F808490968F02292FAA2F253
:1009C00001F0F001B2FA82F2D140044A515CC84011
:1009D0000349086010BD000008380240881E000866
:1009E0000000002010B5FFF7E3FF074909684FF446
:1009F000E05292FAA2F201F4E051B2FA82F2D1404E
:100A0000024A515CC84010BD08380240881E0008E8
:100A100010B5FFF7CDFF074909684FF4604292FA1D
:100A2000A2F201F46041B2FA82F2D140024A515C72
:100A3000C84010BD08380240881E000810B41F4886
:100A4000006810F00C011E481BD04FEA600C04290E
:100A500016D0082915D11B4A116801F03F0113680F
:100A600013F4800F47F6C0730DD0BCFBF1F0116892
:100A7000194093FAA3F3B3FA83F3D94048430CE047
:100A8000604610BC7047B0FBF1F01168194093FA52
:100A9000A3F3B3FA83F3D940484311684FF44032CB
:100AA00092FAA2F201F44031B2FA82F2D140491C2A
:100AB0004900B0FBF1F010BC70470000083802405C
:100AC0000024F400043802402DE9F84F0446DFF812
:100AD000E8B32078F94D10F0010F4FF0000741F214
:100AE000883660D0DBF8000000F00C0004280AD043
:100AF000DBF8000000F00C0008280DD1281D00686C
:100B000010F4800F08D0286810F4003F4BD06068C4
:100B100078BB0120BDE8F88FDFF8A49389F8007056
:100B2000FFF74AFD8046286810F4003F0CD0FFF71D
:100B300043FDA0EB0800B04202D90320BDE8F88FC6
:100B4000286810F4003FF2D1207989F8000060682D
:100B5000A8B1FFF731FD8046286810F4003F22D18C
:100B6000FFF72AFDA0EB0800B04203D90320BDE83F
:100B7000F88F18E0286810F4003FF1D013E0FFF779
:100B80001BFD8046286810F4003F0CD0FFF714FDD1
:100B9000A0EB0800B04202D90320BDE8F88F286816
:100BA00010F4003FF2D12078DFF8188310F0020F24
:100BB00064D0DBF800004FF0F80A10F00C0F17D0EB
:100BC000DBF8000000F00C00082804D1BE480068E3
:100BD00010F4800F0CD0E068C8B30120C8F8000002
:100BE000FFF7EAFC8146286810F0020F16D022E0D9
:100BF000286810F0020F05D0E068012802D001201B
:100C0000BDE8F88F28689AFAAAF22169B2FA82F24E
:100C100020F0F8009140084328602FE0FFF7CCFC5B
:100C2000A0EB0900642802D90320BDE8F88F2868EA
:100C300010F0020FF2D028689AFAAAF22169B2FAEB
:100C400082F220F0F80091400843286016E0FFE7A8
:100C5000C8F80070FFF7B0FC8146286810F0020F5A
:100C60000CD0FFF7A9FCA0EB0900642802D90320EF
:100C7000BDE8F88F286810F0020FF2D1207810F04C
:100C8000080F34D09148DFF848A26169C1B1012151
:100C90000160FFF791FC8146DAF8000010F0020FC6
:100CA00025D1FFF789FCA0EB0900642802D90320B5
:100CB000BDE8F88FDAF8000010F0020FF1D016E06E
:100CC0000760FFF779FC8146DAF8000010F0020FA8
:100CD0000DD0FFF771FCA0EB0900642802D90320B6
:100CE000BDE8F88FDAF8000010F0020FF1D120789B
:100CF00010F0040F72D07748016841F08051016014
:100D0000006800F080500090DFF8CCA1DAF8000015
:100D100040F48070CAF80000FFF74EFC8146DAF814
:100D2000000010F4807F0DD1FFF746FCA0EB090016
:100D3000642802D90320BDE8F88FDAF8000010F427
:100D4000807FF1D0DFF894A18AF80070FFF734FCBF
:100D50008146DAF8000010F0020F0DD0FFF72CFCEE
:100D6000A0EB0900B04202D90320BDE8F88FDAF801
:100D7000000010F0020FF1D1207A8AF80000A0687C
:100D8000B0B1FFF719FC8146DAF8000010F0020F4D
:100D900024D1FFF711FCA0EB0900B04202D90320D7
:100DA000BDE8F88FDAF8000010F0020FF1D015E07E
:100DB000FFF702FC8146DAF8000010F0020F0DD0B8
:100DC000FFF7FAFBA0EB0900B04202D90320BDE80F
:100DD000F88FDAF8000010F0020FF1D1A069E8B343
:100DE000DBF8001001F00C01082979D0022810D09E
:100DF000C8F86070FFF7E0FB0446286810F0007F39
:100E000074D0FFF7D9FB001B64286BD90320BDE821
:100E1000F88FC8F86070FFF7CFFB0646286810F01F
:100E2000007F0BD0FFF7C8FB801B642802D903208A
:100E3000BDE8F88F286810F0007FF3D1216AE069DF
:100E4000626A014347F6C07090FAA0F0B0FA80F0F1
:100E500002FA00F04FF0FF33A26A00E046E003EB35
:100E600052024FF4403393FAA3F3B3FA83F39A4058
:100E7000104308434FF0706292FAA2F2E16AB2FAAC
:100E800082F291400143104801600120C8F86000DF
:100E9000FFF792FB0446286810F0007F26D1FFF789
:100EA0008BFB001B642802D90320BDE8F88F28685B
:100EB00010F0007FF3D019E00838024000380240FB
:100EC000023802400000474204380240800E474288
:100ED00074380240403802400070004070380240D0
:100EE00007E0FFE7286810F0007F8AD10020BDE806
:100EF000F88F0120BDE8F88F70B50446002C04D0AF
:100F000094F85100002510B106E0012070BD84F86E
:100F10005050204600F034F8022084F85100206838
:100F2000016821F040010160A168606822690843FE
:100F3000E1681143084361690843218B01F40071A2
:100F40000843E1690843216A0843A16A084321680C
:100F50000860A069042101EA1040616A0843216821
:100F600048602168E06A08612068C16921F4006175
:100F7000C1616565012084F85100002070BD00004A
:100F800000B587B00068A0F18041B1F5983115D166
:100F90000B48016841F480510160006800F4805002
:100FA0000190E02002900220039000200490059020
:100FB0000520069002A90348FFF7F8F907B000BD25
:100FC00044380240000002404FF0E021042804D0E1
:100FD000086920F0040008617047086940F00400C7
:100FE0000861704770470000401EB0F1807F01D358
:100FF000012070474FF0E0214861044AF020107052
:1010000000208861072008610020704723ED00E080
:1010100010B5FFF7E7FF10BD70B50446002C04D0F3
:1010200094F83900002510B106E0012070BD84F865
:101030003850204600F020F8022084F8390020685B
:10104000C16821F40051C160204600F0D7FC20683F
:10105000016921F4904101612068416921F02A0170
:1010600041612068C16841F40051C160E56301201D
:1010700084F83900002070BD00B587B00068A0F189
:101080008041B1F5884116D10C48016841F4003126
:101090000160006800F4003001900C2002900220F2
:1010A000039001200490032005900720069002A9D8
:1010B0000348FFF77BF907B000BD0000403802404D
:1010C000000002402DE9F04F87B06348016841F00D
:1010D00010010160016801F010010191016841F007
:1010E00004010160016801F004010191016841F00F
:1010F00080010160016801F080010191016841F007
:1011000001010160016801F001010191016841F0F4
:1011100002010160016801F002010191016841F0E2
:1011200008010160006800F008000190082602969E
:101130000125039500240494059402A94748FFF76C
:1011400035F9029503950494059402A94448FFF7E4
:101150002DF9029602260396049405940527069716
:1011600002A93F48FFF722F90295DFF8F880CDF891
:101170000C80049402A93C48FFF718F91020029053
:101180000396049405944FF00609CDF8189002A92F
:101190003548FFF70BF94FF0040ACDF808A0039487
:1011A0000494DFF8C8B002A95846FFF7FFF8A80278
:1011B0000290039604940594069702A95846FFF7F7
:1011C000F5F84FF210000290039504940594284F0F
:1011D00002A93846FFF7EAF84FF4A45002900396AC
:1011E00004940594CDF8189002A91D48FFF7DEF885
:1011F000680202900394049402A91B48FFF7D6F8F2
:101200004FF4E05002900396049405940A2006904F
:1012100002A91548FFF7CAF820200290039404940D
:1012200002A93846FFF7C2F84FF41070029012205E
:10123000039004950594CDF818A002A95846FFF72D
:10124000B5F80296CDF80C80049402A90348FFF784
:10125000ADF807B0BDE8F08F303802400010024012
:10126000000802400000121000000240000402408A
:10127000000C02400848074901604FF4E131416029
:1012800000218160C16001610C2242618161C16104
:10129000FFF7C2BE004400401C00002010B5054C02
:1012A0004FF400002060FF21034800F0AAFA8021DB
:1012B000216010BD180C02400038004010B5FFF747
:1012C000EDFF10F0200F01D0012010BD10F0100F25
:1012D00001D0002010BDFF2010BD00002DE9F0411D
:1012E00006460D4600F064F82E4F0121384600F006
:1012F00077FA0A2D00D90A25002E51D000212A4C58
:10130000617025700320A0700020E07000F0DAF812
:10131000304600F089F82178112000F08FF921780B
:10132000122000F08BF92178132000F087F9217842
:10133000142000F083F92178152000F07FF921783E
:10134000162000F07BF9A178E07800F08BF80821F6
:10135000002000F073F93F21012000F06FF93F21D8
:10136000022000F06BF94F21042000F067F9002102
:101370001C2000F063F90D4C4FF400062660E121BB
:10138000384600F03EFA802525602660E221384686
:1013900000F037FA256000F02BF80120BDE8F0815D
:1013A0000121ACE70038004018000020180C024072
:1013B00070B582B0002501240B4E2B4622468021B9
:1013C000304601950094FEF7A3FF0122002311028D
:1013D000304601950094FEF79BFF04488021016090
:1013E0004904016002B070BD000C0240180C0240BC
:1013F00010B5094C4FF08070206040102060E22151
:10140000064800F0FEF9802020600B21002000F04B
:1014100015F9A015206010BD180C024000380040DE
:101420000A21002000F00AB97D2808D804494A782A
:10143000824204D048700146052000F0FFB8704792
:101440001800002010B5064C4FF080722260014653
:1014500005220B2000F00CF9A015206010BD000043
:10146000180C02400A4600210E4BD8709A700028D2
:1014700002D0022802D002E0082100E02021032A45
:1014800004D0022A05D0012A06D007E041F0060167
:1014900004E041F0040101E041F00201062000F007
:1014A000CDB800001800002010B5044605222146E2
:1014B0000A2000F0DDF821460522BDE8104010208A
:1014C00000F0D6B810B582B00821002000F0B6F8C0
:1014D0003F21012000F0B2F80321022000F0AEF815
:1014E0000321084600F0AAF80321042000F0A6F822
:1014F0000221052000F0A2F80E21062000F09EF83F
:101500000E21072000F09AF80021082000F096F83C
:101510000021092000F092F8E7248DF800408DF8B2
:1015200001408DF802408DF803408DF804400522FB
:1015300069460A2000F09CF8C2208DF800008DF862
:1015400001008DF802008DF803008DF804000522DB
:1015500069460B2000F08CF8C3210C2000F06EF8D7
:10156000C4210D2000F06AF8C5210E2000F066F8B5
:10157000C6210F2000F062F88DF800408DF8014080
:101580008DF802408DF803408DF80440052269462D
:10159000102000F06DF80021112000F04FF800211C
:1015A000122000F04BF80021132000F047F8002132
:1015B000142000F043F80021152000F03FF800212E
:1015C000162000F03BF81121172000F037F8002119
:1015D0001C2000F033F800211D2000F02FF802B08D
:1015E00010BD00002DE9F047814611480778114CE5
:1015F0004FF080702060FFF713FF4FF40006266065
:10160000DFF83480E121404600F0FBF880252560BA
:101610002660A021404600F0F4F83A46494640468C
:1016200000F009F92560A0152060BDE8F0870000F2
:1016300018000020180C02400038004070B50D461C
:10164000094C4FF40001216000F01F00074E40F0EC
:101650002001304600F0D5F82946304600F0D1F898
:101660008020206070BD0000180C0240003800404F
:101670002DE9F0410D4616460A4C4FF40001216059
:1016800000F01F00084F40F02001384600F0B9F884
:1016900032462946384600F0CEF880202060BDE86A
:1016A000F0810000180C02400038004030B593B0C3
:1016B0001F48016841F080510160006800F08050CF
:1016C00001901C48016841F480410160006800F409
:1016D000804001900120029003900025059580052F
:1016E00009900224089408200A904FF4B4700B90DB
:1016F0000C9407200D9002A8FFF7E6F910B113B083
:10170000012030BD0F9410950F200E904FF4A05083
:1017100011904FF48050129006210EA8FFF708F8A0
:1017200010B113B0012030BD13B0002030BD000057
:1017300040380240007000402DE9F04182B004467C
:10174000DFF88C8005260325002C10D100231A46D3
:101750004FF48061404601960095FEF7F0FD0023AE
:101760001A460C211B4801960095FEF7E8FD012C56
:1017700008D100231A464FF4604140460196009577
:10178000FEF7DDFD144F022C07D100231A460D2170
:10179000384601960095FEF7D2FD032C0FD10023A9
:1017A0001A46A103404601960095FEF7C8FD0023A6
:1017B0001A460221384601960095FEF7C0FD042C1A
:1017C00003D10521054800F01BF802B0BDE8F08107
:1017D000000402400008024000200240003800409F
:1017E00000B583B000204FF482720092019002464F
:1017F0002023024800F03CF803B000BD0038004050
:101800007047026812F0400F01D1002070478268D3
:1018100012F0020FFBD0826812F0800FF7D1017333
:10182000816811F0010FFBD0816811F0800FF7D1B2
:10183000C068C0B27047036813F0400F17D0531E42
:1018400015D3826812F0020FFBD0826812F0800F6D
:10185000F7D111F8012B0273826812F0010FFBD04F
:10186000826812F0800FF7D182895B1EE9D270473F
:10187000F0B599B014461F9E1E9D1F4602901F484A
:10188000026842F480420260006800F480400190E7
:101890000846FFF751FF0020059009970A96039527
:1018A0000C9007210D910B904FF40071089104905A
:1018B00044B10121012C08D00222022C08D0032CB3
:1018C00009D00AE00690079007E00690079104E02F
:1018D0000692079001E0069207910298006802992B
:1018E00020F04000086002A8FFF706FB029800689D
:1018F000029940F04000086019B0F0BD4038024045
:1019000010B5FEF75FFEBDE81040FFF781BB000099
:1019100010B592B02148016841F080510160006823
:1019200000F0805000901E48016841F48041016041
:10193000006800F480400090012006900790022487
:101940000C9480050D9008200E904FF4A8700F9015
:1019500010940720119006A8FFF7B6F80D2001900B
:101960000294002003904FF4A0500490E0020590F0
:10197000052101A8FEF7DCFEFFF71AF84FF47A7193
:10198000B0FBF1F0FFF730FB0420FFF71DFB002256
:101990001146501EFEF786FE12B010BD40380240C0
:1019A000007000400F48016841F4700101600E486A
:1019B000016841F0010101600C4A002111600268D8
:1019C00022F4102222F080720260031D084A1A607D
:1019D000026822F480220260064801600649580627
:1019E0000860704788ED00E0003802400838024087
:1019F000103000240C38024008ED00E02DE9F041E1
:101A000004462068016921F44051E26811430161F4
:101A10002068C16821F4037121F414412369A2688C
:101A2000D4F81CC01A43636943EA0C031A431143F8
:101A3000C1602068416921F44071A269114341618C
:101A4000E069714A7149724D3226B0F5004F38D0C5
:101A50002068884201D090427ED1FEF7D9FF00EB8A
:101A6000C00101EB001061688900B0FBF1F0A5FB3B
:101A700000104709FEF7CCFF00EBC00101EB00109E
:101A800061688900B0FBF1F8FEF7C2FF00EBC0010E
:101A900001EB001061688900B0FBF1F0A5FB0010BC
:101AA00040096FF01801484308EB800006EB001076
:101AB000A5FB00102168400967F31F108860BDE88E
:101AC000F0812068884201D0904233D1FEF7A0FF18
:101AD00000EBC00101EB001061684900B0FBF1F0C0
:101AE000A5FB00104709FEF793FF00EBC00101EBD7
:101AF000001061684900B0FBF1F8FEF789FF00EBC8
:101B0000C00101EB001061684900B0FBF1F0A5FBDA
:101B1000001040096FF01801484308EB800006EB05
:101B20000010A5FB00102168400967F31F108860B2
:101B3000BDE8F081FEF756FF00EBC00101EB00109D
:101B400061684900B0FBF1F0A5FB00104709FEF702
:101B500049FF00EBC00100E022E001EB00106168EA
:101B60004900B0FBF1F8FEF73DFF00EBC00101EBCF
:101B7000001061684900B0FBF1F0A5FB00104009BE
:101B80006FF01801484308EB800006EB0010A5FB3E
:101B900000102168400967F31F108860BDE8F081DC
:101BA000FEF720FF00EBC00101EB00106168890027
:101BB000B0FBF1F0A5FB00104709FEF713FF00EBA7
:101BC000C00101EB001061688900B0FBF1F8FEF77D
:101BD00009FF00EBC00101EB001061688900B0FB58
:101BE000F1F0A5FB001040096FF01801484308EB25
:101BF000800006EB0010A5FB00102168400967F388
:101C00001F108860BDE8F081001401400010014001
:101C10001F85EB510FB4084B10B504A902AA039815
:101C200000F01CF8044602A9002000F0C1F820468C
:101C300010BC5DF814FB0000B11D000802E008C8EC
:101C4000121F08C1002AFAD170477047002001E036
:101C500001C1121F002AFBD1704700002DE9FF4F80
:101C600089B09B460446002506E025280BD05A463D
:101C70000B999047641C6D1C20780028F5D10DB09D
:101C80002846BDE8F08F0027B8460122474900E00A
:101C9000074314F8013F203B02FA03F00842F7D152
:101CA00020782E2819D114F8010F47F004072A28AC
:101CB0000ED06FF02F022078A0F1300109290CD846
:101CC00008EB880102EB410100EB0108641CF2E71C
:101CD0000A98641C50F8048B0A9020780028CED013
:101CE000642808D0692806D075281ED05A460B995A
:101CF00090476D1C58E00A994FF00A0901C90A91F2
:101D0000002802DA40422D2102E0390504D52B21BA
:101D10008DF82010012103E0F90704D02021F7E716
:101D20008A4608AE0DE00021FAE70A994FF00A0949
:101D300001C90A91F7E74946FEF742FA303106F841
:101D4000011D0028F7D1ADEB060000F1200978074E
:101D500001D44FF00108C84502DDA8EB090000E0FE
:101D600000208046002706E008A85A46C05D0B996F
:101D700090476D1C7F1C5745F6DB04E030205A4627
:101D80000B9990476D1CB8F10001A8F10108F5DC32
:101D900005E016F8010B5A460B9990476D1CB9F1F6
:101DA0000001A9F10109F4DC641C65E709280100C0
:101DB0000A68531C0B60107070470000FEF73CFC73
:101DC000FFF7A6FDFFF77EF9FFF754FAFFF76EFC69
:101DD000FEF720FA0A210F20FFF780FA03210120E5
:101DE000FFF740FB1C48FFF72DFB1C48FFF75CFB8F
:101DF0001B4E1C4D1C4C4FF000084FF480594FF403
:101E000000474FF4804A4FF4005B18A11A48FFF7CF
:101E100001FFC6F800801848FFF7E4FBC4F8009003
:101E2000FFF74CFA28702760FF28F9D0C4F800A00B
:101E3000FFF7DEFA326811A11248FFF7EBFEC4F893
:101E400000B04FF080502060C0002060400820604B
:101E500040102060D9E70000050000200A000020A3
:101E60001400002004000020180C0240616263642A
:101E700065666768696A00005C0000202564206D63
:101E8000730000006600002000000000010203044F
:101E90000102030406070809B81E0008000000201C
:101EA0001C0000003C1C0008D41E00081C00002080
:101EB000AC0400004C1C00080024F40000E7E7E735
:101EC000E7E77E7E7E7E7E000000000000000000CE
:041ED000000000000E
:040000050800018965
:00000001FF
